:100000000C9434000C943E000C943E000C943E0082
:100010000C943E000C943E000C943E000C943E0068
:100020000C943E000C943E000C943E000C943E0058
:100030000C943E000C943E000C943E000C943E0048
:100040000C943E000C943E000C943E000C943E0038
:100050000C943E000C943E000C943E000C943E0028
:100060000C943E000C943E0011241FBECFEFD8E04C
:10007000DEBFCDBF0E9440000C946C000C940000C9
:1000800038980FEF0AB911E021E036B131232BB9CE
:100090000E946000131749F0131711F40C944500E7
:1000A000220F211539F00C9445002695211529F0D1
:1000B0000C94450021E00C94450020E80C94450088
:1000C000FFE0EFEF41E00E9468003197E1F708950B
:0C00D00000004A95E9F70895F894FFCF6E
:00000001FF
